{
  "contractName": "DeployedRegistry",
  "abi": [
    {
      "constant": true,
      "inputs": [
        {
          "name": "",
          "type": "address"
        }
      ],
      "name": "isWhitelisted",
      "outputs": [
        {
          "name": "",
          "type": "bool"
        }
      ],
      "payable": false,
      "stateMutability": "view",
      "type": "function"
    }
  ],
  "bytecode": "0x608060405234801561001057600080fd5b5061015f806100206000396000f3fe608060405234801561001057600080fd5b506004361061002b5760003560e01c80633af32abf14610030575b600080fd5b61004a60048036036100459190810190610094565b610060565b60405161005791906100cc565b60405180910390f35b60006020528060005260406000206000915054906101000a900460ff1681565b600061008c82356100f3565b905092915050565b6000602082840312156100a657600080fd5b60006100b484828501610080565b91505092915050565b6100c6816100e7565b82525050565b60006020820190506100e160008301846100bd565b92915050565b60008115159050919050565b60006100fe82610105565b9050919050565b600073ffffffffffffffffffffffffffffffffffffffff8216905091905056fea265627a7a72305820af583b29fa7bcdcc30d4c24fad64fa168fba12bb6a81207d8b9d6cc61e78b01d6c6578706572696d656e74616cf50037",
  "source": "pragma solidity ^0.5.5;\npragma experimental ABIEncoderV2;\n\n// Copy ABI of deployed Registry contract here:\ncontract DeployedRegistry {\n\n    mapping (address => bool) public isWhitelisted;\n    // mapping (string => address) private contentIdToAddress;\n    // struct ContentIdStruct {\n    //     string contentId;\n    // }\n    // mapping (address => ContentIdStruct[]) private addressToContentIds;\n    // bool public paused = false;\n}\n\ncontract Relay {\n\n    // address public currentVersion;\n    DeployedRegistry public dr;\n    address public owner;\n\n    constructor(address initAddr)\n        public\n    {\n        // currentVersion = initAddr;\n        dr = DeployedRegistry(initAddr);\n        owner = msg.sender;\n    }\n\n    // function update(address newAddress)\n    //     public\n    // {\n    //     require(msg.sender == owner, 'NOT_AUTHORIZED');\n    //     currentVersion = newAddress;\n    // }\n\n\n    function isWhitelisted(address target)\n        public\n        view\n        returns (bool)\n    {\n\n        return dr.isWhitelisted(target);\n\n    }\n\n    // I think this is the pattern to use for sending a state change to deployed contract\n    // Not just reading a value; I don't think we'll need to do this, but leaving this\n    // here just in case.\n    // From: https://ethereum.stackexchange.com/questions/73455/delegatecall-return-values-solidity-5-0?rq=1\n    // function updateStatus(address target)\n    //     public\n    //     returns (bool)\n    // {\n\n    //     bytes memory data = abi.encodeWithSelector(bytes4(keccak256(\"updateStatus(address)\")), target);\n    //     (bool success, bytes memory returnedData) = currentVersion.delegatecall(data);\n    //     require(success);\n    //     return abi.decode(returnedData, (bool));\n    // }\n\n}\n",
  "sourcePath": "/Users/lauren/github/test-contract-relay/contracts/Relay.sol",
  "compiler": {
    "name": "solc",
    "version": "0.5.5+commit.47a71e8f.Emscripten.clang"
  },
  "schemaVersion": "3.0.10",
  "updatedAt": "2019-08-09T23:04:58.187Z",
  "devdoc": {
    "methods": {}
  },
  "userdoc": {
    "methods": {}
  }
}