{
  "contractName": "Relay",
  "abi": [
    {
      "constant": true,
      "inputs": [],
      "name": "owner",
      "outputs": [
        {
          "name": "",
          "type": "address"
        }
      ],
      "payable": false,
      "stateMutability": "view",
      "type": "function"
    },
    {
      "constant": true,
      "inputs": [],
      "name": "dr",
      "outputs": [
        {
          "name": "",
          "type": "address"
        }
      ],
      "payable": false,
      "stateMutability": "view",
      "type": "function"
    },
    {
      "inputs": [
        {
          "name": "initAddr",
          "type": "address"
        }
      ],
      "payable": false,
      "stateMutability": "nonpayable",
      "type": "constructor"
    },
    {
      "constant": true,
      "inputs": [
        {
          "name": "target",
          "type": "address"
        }
      ],
      "name": "isWhitelisted",
      "outputs": [
        {
          "name": "",
          "type": "bool"
        }
      ],
      "payable": false,
      "stateMutability": "view",
      "type": "function"
    }
  ],
  "bytecode": "0x608060405234801561001057600080fd5b506040516020806104b6833981018060405261002f91908101906100ca565b806000806101000a81548173ffffffffffffffffffffffffffffffffffffffff021916908373ffffffffffffffffffffffffffffffffffffffff16021790555033600160006101000a81548173ffffffffffffffffffffffffffffffffffffffff021916908373ffffffffffffffffffffffffffffffffffffffff16021790555050610125565b60006100c282516100f3565b905092915050565b6000602082840312156100dc57600080fd5b60006100ea848285016100b6565b91505092915050565b60006100fe82610105565b9050919050565b600073ffffffffffffffffffffffffffffffffffffffff82169050919050565b610382806101346000396000f3fe608060405234801561001057600080fd5b50600436106100415760003560e01c80633af32abf146100465780638da5cb5b14610076578063a469eb1114610094575b600080fd5b610060600480360361005b91908101906101d8565b6100b2565b60405161006d9190610272565b60405180910390f35b61007e610165565b60405161008b9190610257565b60405180910390f35b61009c61018b565b6040516100a9919061028d565b60405180910390f35b60008060009054906101000a900473ffffffffffffffffffffffffffffffffffffffff1673ffffffffffffffffffffffffffffffffffffffff16633af32abf836040518263ffffffff1660e01b815260040161010e9190610257565b60206040518083038186803b15801561012657600080fd5b505afa15801561013a573d6000803e3d6000fd5b505050506040513d601f19601f8201168201806040525061015e9190810190610201565b9050919050565b600160009054906101000a900473ffffffffffffffffffffffffffffffffffffffff1681565b6000809054906101000a900473ffffffffffffffffffffffffffffffffffffffff1681565b60006101bc82356102e6565b905092915050565b60006101d082516102f8565b905092915050565b6000602082840312156101ea57600080fd5b60006101f8848285016101b0565b91505092915050565b60006020828403121561021357600080fd5b6000610221848285016101c4565b91505092915050565b610233816102a8565b82525050565b610242816102ba565b82525050565b61025181610324565b82525050565b600060208201905061026c600083018461022a565b92915050565b60006020820190506102876000830184610239565b92915050565b60006020820190506102a26000830184610248565b92915050565b60006102b3826102c6565b9050919050565b60008115159050919050565b600073ffffffffffffffffffffffffffffffffffffffff82169050919050565b60006102f182610304565b9050919050565b60008115159050919050565b600073ffffffffffffffffffffffffffffffffffffffff82169050919050565b600061032f82610336565b9050919050565b6000610341826102c6565b905091905056fea265627a7a723058209c0113952c80afddcf50963550f5ead4a1e54b1259cf114b5e62db077a454ee06c6578706572696d656e74616cf50037",
  "source": "pragma solidity ^0.5.5;\npragma experimental ABIEncoderV2;\n\n// Copy ABI of deployed Registry contract here:\ncontract DeployedRegistry {\n\n    mapping (address => bool) public isWhitelisted;\n    // mapping (string => address) private contentIdToAddress;\n    // struct ContentIdStruct {\n    //     string contentId;\n    // }\n    // mapping (address => ContentIdStruct[]) private addressToContentIds;\n    // bool public paused = false;\n}\n\ncontract Relay {\n\n    // address public currentVersion;\n    DeployedRegistry public dr;\n    address public owner;\n\n    constructor(address initAddr)\n        public\n    {\n        // currentVersion = initAddr;\n        dr = DeployedRegistry(initAddr);\n        owner = msg.sender;\n    }\n\n    // function update(address newAddress)\n    //     public\n    // {\n    //     require(msg.sender == owner, 'NOT_AUTHORIZED');\n    //     currentVersion = newAddress;\n    // }\n\n\n    function isWhitelisted(address target)\n        public\n        view\n        returns (bool)\n    {\n\n        return dr.isWhitelisted(target);\n\n    }\n\n    // I think this is the pattern to use for sending a state change to deployed contract\n    // Not just reading a value; I don't think we'll need to do this, but leaving this\n    // here just in case.\n    // From: https://ethereum.stackexchange.com/questions/73455/delegatecall-return-values-solidity-5-0?rq=1\n    // function updateStatus(address target)\n    //     public\n    //     returns (bool)\n    // {\n\n    //     bytes memory data = abi.encodeWithSelector(bytes4(keccak256(\"updateStatus(address)\")), target);\n    //     (bool success, bytes memory returnedData) = currentVersion.delegatecall(data);\n    //     require(success);\n    //     return abi.decode(returnedData, (bool));\n    // }\n\n}\n",
  "sourcePath": "/Users/lauren/github/test-contract-relay/contracts/Relay.sol",
  "compiler": {
    "name": "solc",
    "version": "0.5.5+commit.47a71e8f.Emscripten.clang"
  },
  "schemaVersion": "3.0.10",
  "updatedAt": "2019-08-09T23:04:59.002Z",
  "devdoc": {
    "methods": {}
  },
  "userdoc": {
    "methods": {}
  }
}