{
  "contractName": "Relay",
  "abi": [
    {
      "constant": true,
      "inputs": [
        {
          "name": "",
          "type": "uint32"
        }
      ],
      "name": "federationIdToRegistryAddress",
      "outputs": [
        {
          "name": "",
          "type": "address"
        }
      ],
      "payable": false,
      "stateMutability": "view",
      "type": "function"
    },
    {
      "constant": true,
      "inputs": [],
      "name": "owner",
      "outputs": [
        {
          "name": "",
          "type": "address"
        }
      ],
      "payable": false,
      "stateMutability": "view",
      "type": "function"
    },
    {
      "inputs": [],
      "payable": false,
      "stateMutability": "nonpayable",
      "type": "constructor"
    },
    {
      "constant": false,
      "inputs": [
        {
          "name": "federationId",
          "type": "uint32"
        },
        {
          "name": "newAddress",
          "type": "address"
        }
      ],
      "name": "update",
      "outputs": [],
      "payable": false,
      "stateMutability": "nonpayable",
      "type": "function"
    },
    {
      "constant": true,
      "inputs": [
        {
          "name": "federationId",
          "type": "uint32"
        },
        {
          "name": "contentId",
          "type": "string"
        }
      ],
      "name": "isContentIdRegisteredToCaller",
      "outputs": [
        {
          "name": "",
          "type": "bool"
        }
      ],
      "payable": false,
      "stateMutability": "view",
      "type": "function"
    },
    {
      "constant": true,
      "inputs": [
        {
          "name": "federationId",
          "type": "uint32"
        },
        {
          "name": "account",
          "type": "address"
        }
      ],
      "name": "isMinter",
      "outputs": [
        {
          "name": "",
          "type": "bool"
        }
      ],
      "payable": false,
      "stateMutability": "view",
      "type": "function"
    },
    {
      "constant": true,
      "inputs": [
        {
          "name": "federationId",
          "type": "uint32"
        },
        {
          "name": "from",
          "type": "address"
        },
        {
          "name": "to",
          "type": "address"
        },
        {
          "name": "tokenId",
          "type": "uint256"
        },
        {
          "name": "minter",
          "type": "address"
        },
        {
          "name": "owner",
          "type": "address"
        }
      ],
      "name": "isAuthorizedTransferFrom",
      "outputs": [
        {
          "name": "",
          "type": "bool"
        }
      ],
      "payable": false,
      "stateMutability": "view",
      "type": "function"
    }
  ],
  "bytecode": "0x608060405234801561001057600080fd5b50336000806101000a81548173ffffffffffffffffffffffffffffffffffffffff021916908373ffffffffffffffffffffffffffffffffffffffff160217905550610acb806100606000396000f3fe608060405234801561001057600080fd5b50600436106100625760003560e01c80630d1e35911461006757806312d26ac8146100975780632c41de8d146100c75780638a7b7552146100f75780638da5cb5b14610113578063abe6178314610131575b600080fd5b610081600480360361007c9190810190610677565b610161565b60405161008e9190610824565b60405180910390f35b6100b160048036036100ac919081019061063b565b610246565b6040516100be9190610824565b60405180910390f35b6100e160048036036100dc9190810190610612565b61031f565b6040516100ee9190610809565b60405180910390f35b610111600480360361010c919081019061063b565b610352565b005b61011b610445565b6040516101289190610809565b60405180910390f35b61014b60048036036101469190810190610700565b61046a565b6040516101589190610824565b60405180910390f35b600080600160008963ffffffff1663ffffffff16815260200190815260200160002060009054906101000a900473ffffffffffffffffffffffffffffffffffffffff1690508073ffffffffffffffffffffffffffffffffffffffff16630d1e35918989898989896040518763ffffffff1660e01b81526004016101e996959493929190610888565b60206040518083038186803b15801561020157600080fd5b505afa158015610215573d6000803e3d6000fd5b505050506040513d601f19601f8201168201806040525061023991908101906105e9565b9150509695505050505050565b600080600160008563ffffffff1663ffffffff16815260200190815260200160002060009054906101000a900473ffffffffffffffffffffffffffffffffffffffff1690508073ffffffffffffffffffffffffffffffffffffffff166312d26ac885856040518363ffffffff1660e01b81526004016102c692919061085f565b60206040518083038186803b1580156102de57600080fd5b505afa1580156102f2573d6000803e3d6000fd5b505050506040513d601f19601f8201168201806040525061031691908101906105e9565b91505092915050565b60016020528060005260406000206000915054906101000a900473ffffffffffffffffffffffffffffffffffffffff1681565b6000809054906101000a900473ffffffffffffffffffffffffffffffffffffffff1673ffffffffffffffffffffffffffffffffffffffff163373ffffffffffffffffffffffffffffffffffffffff161415156103e3576040517f08c379a00000000000000000000000000000000000000000000000000000000081526004016103da9061083f565b60405180910390fd5b80600160008463ffffffff1663ffffffff16815260200190815260200160002060006101000a81548173ffffffffffffffffffffffffffffffffffffffff021916908373ffffffffffffffffffffffffffffffffffffffff1602179055505050565b6000809054906101000a900473ffffffffffffffffffffffffffffffffffffffff1681565b600080600160008563ffffffff1663ffffffff16815260200190815260200160002060009054906101000a900473ffffffffffffffffffffffffffffffffffffffff1690508073ffffffffffffffffffffffffffffffffffffffff1663abe6178385856040518363ffffffff1660e01b81526004016104ea9291906108e9565b60206040518083038186803b15801561050257600080fd5b505afa158015610516573d6000803e3d6000fd5b505050506040513d601f19601f8201168201806040525061053a91908101906105e9565b91505092915050565b600061054f82356109e6565b905092915050565b600061056382516109f8565b905092915050565b600082601f830112151561057e57600080fd5b813561059161058c82610946565b610919565b915080825260208301602083018583830111156105ad57600080fd5b6105b8838284610a3e565b50505092915050565b60006105cd8235610a24565b905092915050565b60006105e18235610a2e565b905092915050565b6000602082840312156105fb57600080fd5b600061060984828501610557565b91505092915050565b60006020828403121561062457600080fd5b6000610632848285016105d5565b91505092915050565b6000806040838503121561064e57600080fd5b600061065c858286016105d5565b925050602061066d85828601610543565b9150509250929050565b60008060008060008060c0878903121561069057600080fd5b600061069e89828a016105d5565b96505060206106af89828a01610543565b95505060406106c089828a01610543565b94505060606106d189828a016105c1565b93505060806106e289828a01610543565b92505060a06106f389828a01610543565b9150509295509295509295565b6000806040838503121561071357600080fd5b6000610721858286016105d5565b925050602083013567ffffffffffffffff81111561073e57600080fd5b61074a8582860161056b565b9150509250929050565b61075d8161098e565b82525050565b61076c816109a0565b82525050565b600061077d82610972565b610787818561097d565b9350610797818560208601610a4d565b6107a081610a80565b840191505092915050565b60006107b8600e8361097d565b91507f4e4f545f415554484f52495a45440000000000000000000000000000000000006000830152602082019050919050565b6107f4816109cc565b82525050565b610803816109d6565b82525050565b600060208201905061081e6000830184610754565b92915050565b60006020820190506108396000830184610763565b92915050565b60006020820190508181036000830152610858816107ab565b9050919050565b600060408201905061087460008301856107fa565b6108816020830184610754565b9392505050565b600060c08201905061089d60008301896107fa565b6108aa6020830188610754565b6108b76040830187610754565b6108c460608301866107eb565b6108d16080830185610754565b6108de60a0830184610754565b979650505050505050565b60006040820190506108fe60008301856107fa565b81810360208301526109108184610772565b90509392505050565b6000604051905081810181811067ffffffffffffffff8211171561093c57600080fd5b8060405250919050565b600067ffffffffffffffff82111561095d57600080fd5b601f19601f8301169050602081019050919050565b600081519050919050565b600082825260208201905092915050565b6000610999826109ac565b9050919050565b60008115159050919050565b600073ffffffffffffffffffffffffffffffffffffffff82169050919050565b6000819050919050565b600063ffffffff82169050919050565b60006109f182610a04565b9050919050565b60008115159050919050565b600073ffffffffffffffffffffffffffffffffffffffff82169050919050565b6000819050919050565b600063ffffffff82169050919050565b82818337600083830152505050565b60005b83811015610a6b578082015181840152602081019050610a50565b83811115610a7a576000848401525b50505050565b6000601f19601f830116905091905056fea265627a7a723058205914bc618c11719374fc272cb30ffd4b312f4aa8cb753ec0790351562c3867266c6578706572696d656e74616cf50037",
  "source": "pragma solidity ^0.5.5;\npragma experimental ABIEncoderV2;\n\n\n// Deployed Registry contract ABI\n// We just the signatures of the parts we need to interact with:\ncontract DeployedRegistry {\n    function isContentIdRegisteredToCaller(uint32 federationId, string memory contentId) public view returns(bool);\n    function isMinter(uint32 federationId, address account) public view returns (bool);\n    function isAuthorizedTransferFrom(uint32 federationId, address from, address to, uint256 tokenId, address minter, address owner) public view returns(bool);\n}\n\n\ncontract Relay {\n\n    address public owner;\n    mapping (uint32 => address) public federationIdToRegistryAddress;\n\n\n    constructor()\n        public\n    {\n\n        owner = msg.sender;\n\n    }\n\n    function update(uint32 federationId, address newAddress) public {\n\n        require(msg.sender == owner, 'NOT_AUTHORIZED');\n\n        federationIdToRegistryAddress[federationId] = newAddress;\n\n    }\n\n\n    function isContentIdRegisteredToCaller(\n        uint32 federationId,\n        string memory contentId\n    )\n        public\n        view\n        returns (bool)\n    {\n\n        // Checks mapped Registry contract:\n        DeployedRegistry dr = DeployedRegistry(federationIdToRegistryAddress[federationId]);\n\n        // Call upstream fn:\n        return dr.isContentIdRegisteredToCaller(federationId, contentId);\n\n    }\n\n    function isMinter(\n        uint32 federationId,\n        address account\n    )\n        public\n        view\n        returns (bool)\n    {\n\n        // Checks mapped Registry contract:\n        DeployedRegistry dr = DeployedRegistry(federationIdToRegistryAddress[federationId]);\n\n        // Call upstream fn:\n        return dr.isMinter(federationId, account);\n\n    }\n\n    function isAuthorizedTransferFrom(\n        uint32 federationId,\n        address from,\n        address to,\n        uint256 tokenId,\n        address minter,\n        address owner\n    )\n        public\n        view\n        returns (bool)\n    {\n\n        // Checks mapped Registry contract:\n        DeployedRegistry dr = DeployedRegistry(federationIdToRegistryAddress[federationId]);\n\n        // Call upstream fn:\n        return dr.isAuthorizedTransferFrom(federationId, from, to, tokenId, minter, owner);\n\n    }\n\n}\n",
  "sourcePath": "/Users/lauren/github/test-contract-relay/contracts/Relay.sol",
  "compiler": {
    "name": "solc",
    "version": "0.5.5+commit.47a71e8f.Emscripten.clang"
  },
  "schemaVersion": "3.0.10",
  "updatedAt": "2020-02-02T22:50:11.302Z",
  "devdoc": {
    "methods": {}
  },
  "userdoc": {
    "methods": {}
  }
}