{
  "contractName": "Relay",
  "abi": [
    {
      "constant": true,
      "inputs": [],
      "name": "owner",
      "outputs": [
        {
          "name": "",
          "type": "address"
        }
      ],
      "payable": false,
      "stateMutability": "view",
      "type": "function"
    },
    {
      "constant": true,
      "inputs": [],
      "name": "dr",
      "outputs": [
        {
          "name": "",
          "type": "address"
        }
      ],
      "payable": false,
      "stateMutability": "view",
      "type": "function"
    },
    {
      "inputs": [
        {
          "name": "initAddr",
          "type": "address"
        }
      ],
      "payable": false,
      "stateMutability": "nonpayable",
      "type": "constructor"
    },
    {
      "constant": false,
      "inputs": [
        {
          "name": "newAddress",
          "type": "address"
        }
      ],
      "name": "update",
      "outputs": [],
      "payable": false,
      "stateMutability": "nonpayable",
      "type": "function"
    },
    {
      "constant": true,
      "inputs": [
        {
          "name": "target",
          "type": "address"
        }
      ],
      "name": "isWhitelisted",
      "outputs": [
        {
          "name": "",
          "type": "bool"
        }
      ],
      "payable": false,
      "stateMutability": "view",
      "type": "function"
    }
  ],
  "bytecode": "0x608060405234801561001057600080fd5b50604051602080610623833981018060405261002f91908101906100ca565b806000806101000a81548173ffffffffffffffffffffffffffffffffffffffff021916908373ffffffffffffffffffffffffffffffffffffffff16021790555033600160006101000a81548173ffffffffffffffffffffffffffffffffffffffff021916908373ffffffffffffffffffffffffffffffffffffffff16021790555050610125565b60006100c282516100f3565b905092915050565b6000602082840312156100dc57600080fd5b60006100ea848285016100b6565b91505092915050565b60006100fe82610105565b9050919050565b600073ffffffffffffffffffffffffffffffffffffffff82169050919050565b6104ef806101346000396000f3fe608060405234801561001057600080fd5b506004361061004c5760003560e01c80631c1b8772146100515780633af32abf1461006d5780638da5cb5b1461009d578063a469eb11146100bb575b600080fd5b61006b600480360361006691908101906102d4565b6100d9565b005b610087600480360361008291908101906102d4565b6101ae565b60405161009491906103ae565b60405180910390f35b6100a5610261565b6040516100b29190610393565b60405180910390f35b6100c3610287565b6040516100d091906103c9565b60405180910390f35b600160009054906101000a900473ffffffffffffffffffffffffffffffffffffffff1673ffffffffffffffffffffffffffffffffffffffff163373ffffffffffffffffffffffffffffffffffffffff1614151561016b576040517f08c379a0000000000000000000000000000000000000000000000000000000008152600401610162906103e4565b60405180910390fd5b806000806101000a81548173ffffffffffffffffffffffffffffffffffffffff021916908373ffffffffffffffffffffffffffffffffffffffff16021790555050565b60008060009054906101000a900473ffffffffffffffffffffffffffffffffffffffff1673ffffffffffffffffffffffffffffffffffffffff16633af32abf836040518263ffffffff1660e01b815260040161020a9190610393565b60206040518083038186803b15801561022257600080fd5b505afa158015610236573d6000803e3d6000fd5b505050506040513d601f19601f8201168201806040525061025a91908101906102fd565b9050919050565b600160009054906101000a900473ffffffffffffffffffffffffffffffffffffffff1681565b6000809054906101000a900473ffffffffffffffffffffffffffffffffffffffff1681565b60006102b88235610453565b905092915050565b60006102cc8251610465565b905092915050565b6000602082840312156102e657600080fd5b60006102f4848285016102ac565b91505092915050565b60006020828403121561030f57600080fd5b600061031d848285016102c0565b91505092915050565b61032f81610415565b82525050565b61033e81610427565b82525050565b61034d81610491565b82525050565b6000610360600e83610404565b91507f4e4f545f415554484f52495a45440000000000000000000000000000000000006000830152602082019050919050565b60006020820190506103a86000830184610326565b92915050565b60006020820190506103c36000830184610335565b92915050565b60006020820190506103de6000830184610344565b92915050565b600060208201905081810360008301526103fd81610353565b9050919050565b600082825260208201905092915050565b600061042082610433565b9050919050565b60008115159050919050565b600073ffffffffffffffffffffffffffffffffffffffff82169050919050565b600061045e82610471565b9050919050565b60008115159050919050565b600073ffffffffffffffffffffffffffffffffffffffff82169050919050565b600061049c826104a3565b9050919050565b60006104ae82610433565b905091905056fea265627a7a72305820befe210706b060abf15c78325d2f5d2196a663d6d2e9666be50ed7e2411c63ca6c6578706572696d656e74616cf50037",
  "source": "pragma solidity ^0.5.5;\npragma experimental ABIEncoderV2;\n\n\n// Copy of old original Deployed Registry contract ABI\n// We just the signatures of the parts we need to interact with:\ncontract DeployedRegistry {\n\n    mapping (address => bool) public isWhitelisted;\n\n}\n\ncontract Relay {\n\n    DeployedRegistry public dr;\n    address public owner;\n\n    // Initialize the Relay by passing address of original Deployed Registry\n    // See `/migrations/2_deploy_contracts.js`\n    constructor(address initAddr)\n        public\n    {\n\n        dr = DeployedRegistry(initAddr);\n        owner = msg.sender;\n\n    }\n\n    function update(address newAddress)\n        public\n    {\n        require(msg.sender == owner, 'NOT_AUTHORIZED');\n        dr = DeployedRegistry(newAddress);\n    }\n\n\n    function isWhitelisted(address target)\n        public\n        view\n        returns (bool)\n    {\n\n        // Checks original Registry contract for whitelisted status:\n        return dr.isWhitelisted(target);\n\n    }\n\n}\n",
  "sourcePath": "/Users/lauren/github/test-contract-relay/contracts/Relay.sol",
  "compiler": {
    "name": "solc",
    "version": "0.5.5+commit.47a71e8f.Emscripten.clang"
  },
  "schemaVersion": "3.0.10",
  "updatedAt": "2019-08-10T02:10:31.760Z",
  "devdoc": {
    "methods": {}
  },
  "userdoc": {
    "methods": {}
  }
}